:020000040800F2
:10000000E0110020D5740008316C0008336C000842
:1000100000000000000000000000000000000000E0
:10002000000000000000000000000000376C000825
:100030000000000000000000396C00083B6C000864
:10004000371D00088B1D0008672100086B21000880
:10005000A3490008476C00082B4E00084B550008C8
:1000600000000000C53B0008516C0008E75C000878
:10007000075D0008875E000800000000EF650008CB
:10008000000000006368000800000000000000009D
:10009000276A000800000000477200085372000839
:1000A000C7750008C9750008CB75000861360008DF
:1000B000B1270008616C000800000000000000008B
:1000C00010B50400002C01D1012035E0A069002802
:1000D000FFD1606F002805D10020702160542000FE
:1000E00000F03DFE242060672068006801218843FD
:1000F00021680860200000F06FFA012801D101207A
:100100001AE0606A002802D0200000F043FC20685A
:1001100040680A49014020684160206880682A21BF
:1001200088432168886020680068012101432068B5
:100130000160200000F09DFC10BD0000FFB7FFFF34
:10014000FEB582B00400606F20286DD102980028AF
:1001500003D068468089002801D1012065E0802510
:100160006D01A068A84207D12069002804D1029837
:10017000C00701D5012058E07020205C012801D182
:10018000022052E00120702160540027E7672120FF
:10019000606700F0B9FE0190684680895021605286
:1001A0006846808952216052A068A84205D1206922
:1001B000002802D13D00029E01E0029D3E00522037
:1001C000205A00281ED004980090019B0022802114
:1001D000200000F083FC002801D0032025E0002D42
:1001E00006D13088C005C00D21688862B61C03E0C6
:1001F0002878216888626D1C5220205A401E5221A6
:100200006052DCE704980090019B0022402120000E
:1002100000F064FC002801D0032006E02020606785
:1002200070202754002000E0022005B0F0BDF8B592
:1002300004000F001600606F202854D1002F03D057
:10024000300080B2002801D101204DE0A06880215B
:100250004901884207D12069002804D13800C0072D
:1002600001D5012040E07020205C012801D102204E
:100270003AE0012070216054E76450202652522059
:1002800026520025E56721206067A06E00281DD05A
:100290004A48A16EC8624A48A16E08634948A16EE7
:1002A0004863A06E856333009BB220680200283249
:1002B000E16CA06E00F07CFE002807D01020E06703
:1002C000702025542020606701200DE04020216827
:1002D00008627020255420688068802101432068CE
:1002E0008160002000E00220F2BDF2B5040017009A
:1002F000A06F20285ED10098002803D0380080B27B
:10030000002801D1012056E0A068802149018842DF
:1003100007D12069002804D10098C00701D5012029
:1003200049E07020205C012801D1022043E0012631
:1003300030007021605400986065582027520025D5
:10034000E5672220A067E06E00281DD04148E16EDD
:10035000C8624148E16E08631A48E16E4863E06E86
:1003600085633B009BB2626D206801002431E06E22
:1003700000F01EFE002807D01020E06770202554F2
:1003800020206067012016E0702025542068006856
:10039000802149000143206801602068806806438D
:1003A0002068866020688068402101432068816061
:1003B000002000E00220F2BD00000000790B0008E0
:1003C000AF0B00083B0C000870B50400656FA66F0A
:1003D0002068806800061BD5212D19D1206880680F
:1003E0008021884321688860A06E00280DD0A06E0F
:1003F00000F024FE002808D0A06E00F0EAFE2028BD
:1004000003D11020E067032023E0200000F09AFBD6
:100410002068806840061BD5222E19D1206880688C
:100420004021884321688860E06E00280DD0E06E8E
:1004300000F004FE002808D0E06E00F0CAFE20287C
:1004400003D11020E067032003E0200000F083FBCD
:10045000002070BDBD0B00082D0C0008FEB5040087
:100460002068C56920680668206887682807000F2B
:100470000190019800280AD1A80608D5B00606D533
:10048000206E002802D02000216E8847A1E001984C
:10049000002800D17EE00120074204D190214900CC
:1004A0003140002976D001002940C9B2002906D088
:1004B000F10504D521680862E16F0143E167A907EE
:1004C0000BD501003940C9B2002906D002212268AB
:1004D0001162E16F04220A43E26769070BD501004C
:1004E0003940C9B2002906D0042122681162E16FA7
:1004F00002220A43E26729070BD5B10603D438402C
:10050000C0B2002805D0082021680862E16F0843C6
:10051000E067E06F00283CD0A80607D5B00605D5F7
:10052000206E002802D02000216E8847E06F0090E6
:1005300020688068400602D40098000724D5200077
:1005400000F009FB20688068400619D520688068A3
:100550004021884321688860E06E00280CD01D4847
:10056000E16E8863E06E00F093FD002811D0E06E2C
:10057000E16E896B88470CE0200000F044FE08E043
:10058000200000F040FE04E0200000F03CFE0020CF
:10059000E0671EE0E80209D5780207D58020400315
:1005A00021680862200000F02FFE12E0280608D51E
:1005B000300606D5606E002802D02000616E8847A4
:1005C00007E0680605D5700603D5200000F066FB3D
:1005D000FFE7F7BD850C0008FEB5050010200100FF
:1005E0006A4651700026370031006A461170019644
:1005F000AA492A688A42FFD0AA682B6913436C690A
:100600001C43EA6922432B681C68A54B2340134313
:100610002C6823602B685C68A24B2340EC681C4369
:100620002B685C60AB6902932B688B4203D0029A03
:100630002B6A134302932A6892689B4B1340029AD9
:100640001A432B689A602A68B34B9A4215D1B34A71
:1006500012689207920F002A05D0022A05D006D30D
:10066000032A06D007E0012444E0022442E00424E7
:1006700040E008243EE004003CE02A68A84B9A428F
:1006800016D1A64A12680C231340002B06D0042B67
:1006900008D0082B04D00C2B06D007E0340029E04A
:1006A000022427E0042425E0082423E0040021E0BC
:1006B0002A688A421DD1994A1268C0231B0113403F
:1006C000002B0CD08022D20093420CD08022120149
:1006D000934206D0C0221201934206D007E03400B4
:1006E00008E0022406E0042404E0082402E00400F8
:1006F00000E004002A688A425BD12100C9B20029C7
:1007000006D0022908D0042911D0082913D016E0F8
:1007100001F07BF9019015E09B4909680840002829
:1007200002D09A48019001E0994801900AE001F056
:100730001DF9019006E080200002019002E00120F6
:10074000694608700198002800D118E1019869688D
:1007500003225143884206D36868802149014843F7
:100760000199884203D201206946087007E1019887
:10077000002180225200002301F07CF902000B00CE
:10078000686840080021801859416A68002301F018
:100790008AF90700C0208000874206D380204003EA
:1007A000874202D22868C760E9E0012069460870E4
:1007B000E5E080210902EA698A427BD12100C9B2C1
:1007C000002908D0012913D002291ED0042935D0D0
:1007D000082940D04AE001F018F90221484369682D
:1007E00049084018696801F0ACF980B2070040E0A0
:1007F00001F01AF9022148436968490840186968FC
:1008000001F09FF980B2070033E05F4909680840B2
:10081000002809D068684008AE494018696801F0AE
:1008200090F980B2070008E068684008AA494018BB
:10083000696801F086F980B207001AE001F096F8C5
:1008400002214843696849084018696801F079F94C
:1008500080B207000DE06868400880214902401816
:10086000696801F06EF980B2070002E00120694674
:100870000870102F1AD380204002874216D2390008
:10088000AF48084079084907490F0143684641804D
:10089000684640882968C86071E000BF0048004091
:1008A000F369FFEFFFCFFFFFFFF4FFFF0120694671
:1008B000087064E02200D2B2002A08D0012A11D0C8
:1008C000022A1AD0042A37D0082A40D048E001F082
:1008D0009CF8696849084018696801F032F980B2EB
:1008E000070040E001F0A0F869684908401869680D
:1008F00001F027F980B2070035E023490968084074
:1009000000280FD06868400820494018696801F045
:1009100018F980B207000EE0003801404C10024088
:10092000004400406868400819494018696801F0AF
:1009300008F980B2070016E001F018F86968490864
:100940004018696801F0FDF880B207000BE06868A4
:1009500040084018696801F0F4F880B2070002E02E
:10096000012069460870102F06D38020400287427C
:1009700002D22868C76002E00120694608702E662E
:100980006E6668460078FEBD0010024000093D001A
:100990000024F40000B52421415CC90707D5016893
:1009A0004968984A0A40816A1143026851602421CB
:1009B000415C890707D501684968934A0A40C16AC2
:1009C0001143026851602421415C490707D5016841
:1009D00049688E4A0A40016B114302685160242124
:1009E000415C090707D501684968894A0A40416B9B
:1009F0001143026851602421415CC90607D5016892
:100A00008968844A0A40816B1143026891602421FD
:100A1000415C890607D5016889687F4A0A40C16B35
:100A20001143026891602421415C490614D5016894
:100A300049687A4A0A40016C114302685160016CAE
:100A400080225203914207D101684968744A0A40E2
:100A5000416C1143026851602421415C090607D5AD
:100A6000016849686F4A0A40816C1143026851600D
:100A700000BD7CB505000024EC6700F045FA0600D7
:100A80002868006800070CD56748009033000022F2
:100A900080218903280000F021F8002801D00320DC
:100AA00016E02868006840070CD55F4800903300C6
:100AB00000228021C903280000F010F8002801D08E
:100AC000032005E020206867A86770202C540020D0
:100AD00076BD000000127A000048E801F4B5040079
:100AE0000D001F00069E2068C0692840A84201D161
:100AF000012000E000206946097888421ED10020CC
:100B0000C0438642EFD000F0FFF9C01B864201D3FC
:100B1000002EE8D120680068684901402068016023
:100B200020688068012188432168886020206067F0
:100B3000A067002070216054032000E00020F2BD77
:100B4000F0FF000001680968C0229143026811604B
:100B500020214167704701680968594A0A400168C5
:100B60000A6001688968012291430268916020212E
:100B7000816700210166704738B50400A56A2068C6
:100B8000006880060FD400205221685228688068CF
:100B900080218843296888602868006840210143D3
:100BA0002868016002E0280001F022F831BD38B564
:100BB0000400A56A280001F01CF831BD38B5040016
:100BC000A56A2020216809680140002915D100216B
:100BD0005A22A952296809683A4A0A4029680A60D3
:100BE00029688968012291432A6891602968896887
:100BF000402291432A689160A867280000F0FAFF1C
:100C000031BD0000FFFFFDFFFFFFFEFFFFFFFBFF09
:100C1000FF7FFFFFFFEFFFFFFFDFFFFFFFFFEFFFA4
:100C2000FFFF9FFFFFFFF7FFFFFFFF0138B5040045
:100C3000A56A280000F0DFFF31BDF8B50400A56A01
:100C40006F6FAE6F28688068000607D5212F05D129
:100C50000020522168522800FFF774FF286880683E
:100C6000400607D5222E05D100205A2168522800BF
:100C7000FFF771FFE86F10210143E967280000F0DA
:100C8000C2FAF1BD38B50400A56A00205A216852A5
:100C900052216852280000F0B6FA31BD10B50400A8
:100CA0002068006840218843216808602020606730
:100CB00000206066200000F09BFF10BD5FFEFFFF7C
:100CC000DFFEFFFFFFFEFFFF80B581488149016025
:100CD0009621090141608021490181600021C160A4
:100CE0008022D20002610C22426181610162416274
:100CF000FFF7E6F9002801D001F01CF801BD80B52E
:100D0000754876490160E121490241600021816016
:100D1000C16001610C2242618161C1610162416275
:100D2000FFF7CEF9002801D001F004F801BD80B52D
:100D30006B486C490160E1214902416000218160FA
:100D4000C16001610C2242618161C1610162416245
:100D5000FFF7B6F9002801D000F0ECFF01BDF1B5B6
:100D600086B06846142100F0F7FF069800685949DC
:100D7000884225D15C4801688022D2020A43026081
:100D800002205A490A6802430A6009680140059135
:100D90000599C021090100910190002002900320D3
:100DA0000390042004906946514800F0EFFF0022B0
:100DB00007211D2001F08EF91D2001F095F984E036
:100DC000069800684549884255D14A480168802202
:100DD000D2010A430260012044490A6802430A60C2
:100DE0000968014005910599C021C90000910221BF
:100DF0000191029003270397042004906946A020E4
:100E0000C00500F0C3FF3C4E3C48306077600024D2
:100E1000B460F460802535617461B461F46134625A
:100E2000300000F077F8002801D000F083FF06982A
:100E3000C6660698B062324E324830607760102045
:100E4000B060F46035617461B461F46134623000A3
:100E500000F060F8002801D000F06CFF069886666C
:100E60000698B062002206211B2001F033F91B20F6
:100E700001F03AF929E0069800681A49884224D11D
:100E800019480168802292020A4302600120174932
:100E90000A6802430A6009680140059105990C211E
:100EA00000910221019102900320039004200490FC
:100EB0006946A020C00500F069FF002205211C2022
:100EC00001F008F91C2001F00FF907B0F0BD000097
:100ED000F80200200048004078030020003801405C
:100EE000F803002000440040381002402C1002405B
:100EF0000004005034100240680500203000024019
:100F0000B00500201C00024001480068704700BF87
:100F1000D0090020F0B50400002C01D101203EE0F2
:100F200020681F494018142100F00BFE8000606407
:100F30001C482064022025216054206801681A485A
:100F40000840A168E2680A432169114362690A43C3
:100F5000A1691143E2690A43216A114301432068F0
:100F60000160A0688022D201904210D00F481C225C
:100F700003680F25666C17003740BD40AB43036024
:100F800003686568666C324095401D43056000202B
:100F9000E06301222523E2542422A0540020F0BD66
:100FA000F8FFFDBF000002400F80FFFFA8000240D5
:100FB000F7B504001F00002006002421615C012910
:100FC00001D1022039E0012529002422A154252144
:100FD000615C01292BD102212522A154E063206804
:100FE000006801218843216808603B00029A01994A
:100FF000200000F0F0F8206B002806D02068006880
:101000000E210143206801600BE020680068042184
:10101000884321680860206800680A21014320682D
:1010200001602068006805432068056003E0242112
:101030006054022006003000C0B2FEBD30B5010091
:10104000002002002523CB5C022B05D00423CB63B8
:101050002423C85401201AE00B681B680E24A34304
:101060000C6823600B681B680124A3430C68236091
:10107000012344240C5D1C2525401C00AC400D6C54
:101080006C6025240B552423C8541000C0B230BD19
:1010900038B50400002005002521615C022904D038
:1010A0000420E063012005001EE0216809680E228B
:1010B00091432268116021680968012291432268E6
:1010C000116001214422A25C1C2313400A009A40B3
:1010D000236C5A602522A15424216054A06B00285F
:1010E00002D02000A16B88472800C0B232BD70B585
:1010F0000400206C05682068066804211C20626CCE
:1011000002400B0093402B40002B17D00E4215D00D
:1011100022681268920605D42268126804239A4352
:1011200023681A60626C10408140206C4160206B23
:1011300000284DD02000216B884749E00221626CD5
:1011400002400B0093402B40002B1DD00E421BD0C1
:1011500022681268920608D4226812680A239A4309
:1011600023681A6001222523E254626C10408140FA
:10117000206C4160002024216054E06A002827D0C0
:101180002000E16A884723E00821626C02400B00DE
:1011900093402B40002B1BD03140002918D02168F0
:1011A00009680E229143226811600121626C10408F
:1011B0000A008240206C4260E16325202154002017
:1011C00024216054606B002802D02000616B8847A6
:1011D00070BDC06B704770B501244425455D1C2669
:1011E0002E40B440056C6C60046863608468102C09
:1011F00004D10468A2600468E16003E00468A160AF
:101200000468E26070BD70477047F1B4016842182D
:1012100041684808131800988068C9071ED54946D8
:1012200040181BE01778521C0770401C761EF9D13D
:10123000002C13D01678521C89080D40032D01D1C3
:101240001578521C290271184D424119A41C05D071
:101250000D78491C0570401C641EF9D19A420FD0CC
:101260001178521C032503260E4002D11678F61C75
:10127000521C0C090F2CD9D114780F34521CD5E70D
:1012800000980C30F2BC7047F0B585B00400002C1B
:1012900001D1012079E2A84800680C2101400291A7
:1012A000A548006880214902084001900127206874
:1012B000384000285ED00298082807D002980C28F1
:1012C0000DD1019880214902884208D19B480068CD
:1012D00080034FD5606800284CD1012055E260683A
:1012E00080214902884206D1944801688022520236
:1012F0000A4302601FE06068A021C90288420BD146
:101300008E4801688022D2020A430260016880226E
:1013100052020A4302600EE088480168BD4A0A4052
:101320000260016880225202114004910499016810
:10133000B94A0A400260606800280DD0FFF7E4FD5A
:1013400005007E480068800314D4FFF7DDFD401BD4
:101350006528F6D3032018E2FFF7D6FD050077488D
:101360000068800306D5FFF7CFFD401B6528F6D344
:1013700003200AE2207880076BD5E068039002988A
:10138000042805D002980C2831D1019800282ED1CC
:101390006A480168490704D50399002901D1012051
:1013A000F3E1BB490B68BB4A1A4023691B02134394
:1013B0000B60016809229143039A0A43026000F01E
:1013C000D5FAB5495C4A126812091207120F895CF6
:1013D000C840B2490860002000F0A8FE69460870C5
:1013E00068460078002834D068460078CDE103983C
:1013F00000281CD0514E30680921884303990143CD
:101400003160FFF781FD05003068400706D4FFF723
:101410007BFD401B0328F7D30320B6E19C480168FD
:101420009C4A0A40216909021143016011E0434EC0
:101430003068012188433060FFF766FD05003068A1
:10144000400706D5FFF760FD401B0328F7D30320B4
:101450009BE12078C00673D50298002834D1374824
:101460000068800504D5A069002801D101208CE125
:1014700087480168B64A0A40216A11430160016841
:101480000902090AE26912060A430260206A410B56
:10149000491C380088408021090248437E49264A79
:1014A000126812091207120F895CC8407B49086054
:1014B000002000F03BFE694608706846007800286E
:1014C0003ED06846007860E1A069002821D01B4E1C
:1014D00030688021490001433160FFF715FD0500A8
:1014E0003068800506D4FFF70FFD401B0328F7D3B3
:1014F00003204AE166480168954A0A40216A11437F
:10150000016001680902090AE26912060A430260E1
:1015100016E00A4E30689E4901403160FFF7F4FC46
:101520000500306880050BD5FFF7EEFC401B032853
:10153000F7D3032029E100BF0C1002400010024045
:101540002078000725D56069002810D0914E3068BA
:1015500038433060FFF7D8FC05003068800718D4A6
:10156000FFF7D2FC401B0328F7D303200DE1894E7F
:101570003068012188433060FFF7C6FC0500306801
:10158000800706D5FFF7C0FC401B0328F7D30320D4
:10159000FBE02078400700D48BE0002069464870CB
:1015A000802040057C4909680140002905D17A491D
:1015B0000A681043086068464770784F80267600B6
:1015C00038683040002810D1386830433860FFF761
:1015D0009BFC050038683040002806D1FFF794FCDA
:1015E000401B6528F6D30320CFE0A068B04204D1A9
:1015F000684801680E43066028E0A06800280DD105
:1016000064480168624A0A4002600168644A0A400C
:1016100002601BE0FFFFFEFFFFFFFBFFA068A021B1
:10162000C900884209D15B4801688022D2000A4380
:10163000026001680E43066008E056480168544A9B
:101640000A4002600168564A0A400260A068002809
:101650000ED0FFF759FC05004E48006880051FD4E6
:10166000FFF752FC401B4F498842F5D303208CE022
:10167000FFF74AFC050047480068800510D5FFF7D2
:1016800043FC401B47498842F5D303207DE000BF5F
:1016900004100240FFE0FFFFC4740008F8000020BF
:1016A00068464078012804D13B480168A94A0A40AD
:1016B0000260606A002867D002980C284AD0606AED
:1016C000022833D1A44F3868A44901403960FFF79C
:1016D0001BFC04908026B60438683040002807D0F0
:1016E000FFF712FC0499401A0328F3D303204CE0BF
:1016F0009C4801689A4A0A40A16A1143E26A0A4377
:10170000216B11430160386880214904014339602D
:10171000FFF7FAFB050038683040002834D1FFF7A6
:10172000F3FB401B0328F6D303202EE08A4E3068DB
:101730008A4901403160FFF7E7FB0500306880010E
:1017400022D5FFF7E1FB401B0328F7D303201CE061
:10175000FF1FFFFF83480068019001988021490224
:101760000840A16A88420DD10198F0218903014007
:10177000E06A814206D10198C02109040140206B32
:10178000814201D0012000E0002005B0F0BD000042
:10179000FFFEFFFF50100240381002400070004072
:1017A000FFFBFFFF89130000F3B581B00400002C9C
:1017B00001D10120CCE001256B4F38682840029907
:1017C00088420CD23868012188430299014339606C
:1017D000386828400299884201D00120B8E020787A
:1017E000800706D55F480168F0229143A2680A434A
:1017F00002602068284000286BD06068022805D16C
:1018000055480068800319D40120A1E060680328CE
:1018100005D151480068800110D4012098E060682B
:10182000012805D14C480068400707D401208FE00B
:1018300049480068800501D4012089E0494E30689C
:1018400003218843616801433160FFF75DFB00902D
:10185000606802280DD130680C210140082938D079
:10186000FFF752FB0099401A75498842F3D30320D1
:101870006EE0606803280DD130680C2101400C290E
:1018800027D0FFF741FB0099401A6D498842F3D3F6
:1018900003205DE0606801280DD130680C21014013
:1018A000042916D0FFF730FB0099401A644988429A
:1018B000F3D303204CE030680C210140002908D00C
:1018C000FFF722FB0099401A5D498842F3D30320B9
:1018D0003EE002983968294088420CD238680121DC
:1018E000884302990143396038680540029885426F
:1018F00001D001202CE02078400706D51948016866
:10190000504A0A40E168114301602078000707D57A
:10191000144801684C4A0A402169C900114301601A
:1019200000F024F849490F4A126812091207120FF1
:10193000895CC84046490860002000F0F7FB0100C0
:101940000800C0B2002802D00800C0B200E00020A9
:10195000FEBD0000FFFFFFEF00100240FFFFFFFE93
:10196000FFFF02FF0C10024000200240F8B52D4896
:1019700007680C213940042904D008290AD00C2911
:101980000AD031E033480068C00601D5324800E093
:10199000324836E0324834E03249BA0C1207120FAE
:1019A000895C0C00B90D8907890F491C0D0000687E
:1019B000C00306D52A486043290000F0C2F806009B
:1019C00010E024480068C00606D52348604329007B
:1019D00000F0B7F8060005E020486043290000F059
:1019E000B0F8060030000CE01F480068400B4007CC
:1019F000400F009001200099491C88408021090275
:101A00004843F2BD12480068704780B5FFF7FAFFFF
:101A10001649174A1268120A5207520F895CC840C9
:101A200002BD00000C10024080B5FFF7EBFF0F492C
:101A30000F4A1268D20A5207520F895CC84002BD91
:101A400089130000FFF8FFFFFFC7FFFFC474000801
:101A5000F80000200010024000093D000024F400BE
:101A600000127A002075000804100240A0750008DA
:101A70000C10024030B4434351435D18010C0C007C
:101A8000130C5C432D1980B2434392B2514300249E
:101A9000C918644124040B04090C09195043C018E7
:101AA000694130BC7047124224D0994228D970B5A0
:101AB00000251B4202D00C00002109E00024012671
:101AC00049186441944200D3A41A7641F8D33100F6
:101AD000012601E0764109D2001864416D41A41A43
:101AE0009D41F7D2A4185D41B619F5D3300022000C
:101AF0002B0070BD1B42D8D108B500F033FB08BDE8
:101B000001D19042D3D202000B0000210020704787
:101B1000F446002804D4494200F013F840426047DC
:101B20004042002905D45FD000F00BF84042494202
:101B30006047494200F005F84942604703460B43BD
:101B4000E6D40022030A8B420BD203098B4219D23E
:101B500043088B422ED2411A00D201465241104610
:101B60007047FF2209023FD012068B4205D31212A2
:101B700009028B4201D31212090203098B4219D3C5
:101B800000E0090AC3098B4201D3CB01C01A5241BC
:101B900083098B4201D38B01C01A524143098B4206
:101BA00001D34B01C01A524103098B4201D30B01EF
:101BB000C01A5241C3088B4201D3CB00C01A524114
:101BC00083088B4201D38B00C01A524143088B42D9
:101BD00001D34B00C01A5241884200D3401A5241EF
:101BE000CFD201461046704708B500F0BDFA08BDD7
:101BF000704770477047704780B500F0B7FA00F043
:101C00001FF800F0C9FA00F017FBFFF790F800F09A
:101C100031FBFFF774F800F0DBFB00F031FC00F063
:101C20004BFBFFF751F800F05FF800F079F800F097
:101C300096FD01F01EF901F077FB01F09DFFF6E73C
:101C400018B599B00CA8342100F086F86846142124
:101C500000F082F805A81C2100F07EF81F480168FA
:101C60001F4A0A40802109011143016009200C909C
:101C7000802040020D9001201190002415940CA8A2
:101C8000FFF702FB002801D000F054F80F2000906D
:101C90000220019002940394049400216846FFF707
:101CA00083FD002801D000F045F827200590079417
:101CB0000894099480208002069005A801F0C8FFCE
:101CC000002801D000F036F81AB010BD80B54A22C5
:101CD0000449002002F0BEF801BD00000070004081
:101CE000FFE7FFFFD404002080B500F03FFAFFF7C4
:101CF000A7FF00F051FA00F09FFA00F0DDFAFFF7BD
:101D000016F800F0B7FA00F0BBFBFEF7F8FFFEF79D
:101D1000DBFF00F05DFBFFF7D9FF02F018F901BD12
:101D200080B500F04DFC01F085F801F040F901F0BC
:101D3000F1FC01BD7047FEE71206130A1A43130CAB
:101D40001A4300BF094205D0830707D00270401C28
:101D5000491EF9D1704700000022FFE71300103937
:101D600006D330B41400150010393CC0FCD230BC8E
:101D7000490700D30CC000D504C0890002D30280FB
:101D8000801C002900D502707047FEE7FCB50200F8
:101D900000230020019000240868D840002800D1CA
:101DA000F1E0012508682E009E400640019601984A
:101DB000002800D1E5E04868022802D048681228CF
:101DC0001FD1D808042670431018076A072000970F
:101DD0000F26B4461F000740042677436646BE40E0
:101DE000009FB743BC460E691F0038400427784364
:101DF000864067463E433400D808042670431018D6
:101E000004624868012808D04868022805D048685C
:101E1000112802D0486812281CD1966803208446F5
:101E20001F00022047436046B8408643CF68BC4647
:101E30001800022778436746874037439760566803
:101E4000280098408643486800092840984030435D
:101E50000400546017680326BC461F000220474355
:101E60003000B84067468743009748683040844652
:101E70001F00022047436046B840009F384300904F
:101E800000981060D768BC461F000220474330000E
:101E9000B840674687430097886884461F00022041
:101EA00047436046B840009F38430400D460486808
:101EB000C00066D5444807682F43076043488446FE
:101EC0009F08042047436046C05900900F27BC4636
:101ED0001F00300038400427784367468740009849
:101EE000B843A027FF05BA4201D1002512E0384CC3
:101EF000A2420FD0374CA24201D102250AE0364C53
:101F0000A24201D1350005E0344CA24201D10525A1
:101F100000E006251C00264004246643B540054326
:101F20002A489C080426744305512D4C2068019EC4
:101F3000B0434E68F60302D505000198284320609F
:101F4000284D2C68019EB4434E68B60302D520008C
:101F5000019C04432C60244D2868019EB0434E68C8
:101F6000F60202D504000198204328601F4D2C681A
:101F7000019EB4434E68B60202D52000019C044382
:101F80002C605B1C08E7F3BD00B51300DBB2002B2F
:101F900003D00B009BB2836102E00B009BB2836213
:101FA00000BD10B5040012480168220092B2114031
:101FB000002906D0210089B20160200080B202F021
:101FC0002CFB10BD0000000034100240080001404E
:101FD0000004005000080050000C0050001C00508D
:101FE0000004014004040140080401400C040140C5
:101FF000140401400121C206D20E9140434A1160EF
:102000007047F0B5020052B2002A23D503220F24F4
:102010003F4B05006DB22540083DAD0804267543D1
:10202000060076B23440083CA408042674431E59C6
:10203000FF27BC461400044008277C436746A7409E
:10204000BE438C01E4B2024008277A4394403443F3
:102050005C511BE02F4A0323040064B2A40804254A
:102060006C431459FF251E00064008277E43B540E7
:10207000AC438D01EDB20340082673439D402543D8
:1020800003005BB29B0804246343D550F0BD00B548
:10209000BFF34F8F204821490860BFF34F8F00BF27
:1020A000FDE710B50400601E80214904884201D379
:1020B00001200EE0601E1A49086003210020C04381
:1020C000FFF79FFF002017490860072016490860A6
:1020D000002010BD70B505000C001600210028007E
:1020E00040B2FFF78EFF70BD10B50400200040B273
:1020F000FFF780FF10BD80B5FFF7C9FF01BD10B528
:1021000004002000FFF7CDFF10BD000000E100E05B
:102110001CED00E000E400E00400FA050CED00E036
:1021200014E000E018E000E010E000E038B5050041
:1021300000240B480068FA218900FFF702FDFFF731
:10214000DEFF002802D00120040005E00022290063
:102150000020C043FFF7BEFF2000C0B232BD00BF69
:10216000F80000207047FEE77047FEE710B5002436
:102170000848016840220A4302600020FFF7D6FFAA
:10218000002802D00120040001E002F04DFA2000F6
:10219000C0B210BD0020024070B586B001A8142165
:1021A000FFF7DAFD8021204802680A4302600268D6
:1021B00011400091009901250168294301600168DF
:1021C00029400091009902240168214301600068C0
:1021D000204000900098154E012280218901300096
:1021E000FFF7D2FE002218213000FFF7CDFE019448
:1021F0000F4802900024039401A93000FFF7C6FDA8
:102200000C48019002950394049401A93000FFF753
:10221000BDFD002200210520FFF75CFF0520FFF730
:1022200063FF06B070BD00BF2C10024000040050D8
:10223000000021101820000080B501200C490A6818
:1022400002430A60096808400090009800220021BB
:102250000920FFF73FFF0920FFF746FF002200217A
:102260000A20FFF737FF0A20FFF73EFF01BD00BF3E
:10227000301002403EB54B4803C86A4603C2083AD4
:10228000494C4A4820604A4860600025A56049489A
:10229000E0606561200002F0D7F9002801D0FFF767
:1022A00049FD009501956946200002F055FB002884
:1022B00001D0FFF73FFD37BD38B586B03E4803C8B3
:1022C0006A4603C2083A02A81021FFF745FD3B4CBD
:1022D0003B482060072060600025A5606320E06027
:1022E00025616561200002F0CBF9002801D0FFF7DD
:1022F00021FD009501956946200002F02DFB002884
:1023000001D0FFF717FD6020029031200390049563
:102310000595042202A9200002F0E4F9002801D06A
:10232000FFF708FD200000F018F807B030BD00B539
:1023300001681E4A914204D122490A6810231343BE
:102340000B6000BD00B501681D4A914204D11E49D1
:102350000A68202313430B6000BD10B586B004004B
:1023600001A81421FFF7F8FC20681549884216D10E
:10237000012016490A6802430A6009680840009073
:102380000098802001900220029000200390049089
:102390000520059001A9A020C005FFF7F7FC06B0B5
:1023A00010BD0000A87500083C0600200010004089
:1023B0003F1F0000E7030000B0750008780600200A
:1023C0000014014038100240341002402C1002402A
:1023D00038B586B001A81421FFF7BEFC2448006878
:1023E0000090244C24482060002565607F20A06078
:1023F000FF20E06025616561A561E561200002F0D4
:10240000D1FA002801D0FFF795FC01A8290001703E
:10241000290041702900817004950595012201A9C8
:10242000200002F02FFB002801D0FFF783FC684654
:102430000321017009214170182181701921C17097
:1024400001226946200002F0E7FB002801D0FFF7D7
:1024500071FC07B030BD00B50168074A914205D153
:1024600006490A688023DB0213430B6000BD0000AD
:10247000B8750008300800200028004050100240C5
:102480001CB5424803C86A4603C2083A404C41485A
:1024900020600020E063C02109066160A060022185
:1024A000A16301212161E06001002022A15401000B
:1024B0002122A154A062FF21C231616201002C22BD
:1024C000A154042161612063A0616063E061200088
:1024D00002F0ACFC002801D0FFF72CFC2E48009045
:1024E0008020400101906946200002F052FE002841
:1024F00001D0FFF71FFC294800906946200002F038
:1025000048FE002801D0FFF715FC13BD70B586B05A
:10251000040001A81421FFF71FFC20681D49884210
:1025200032D11F480168802292000A4302600120D4
:102530001C490A6802430A60096808400090009834
:1025400060200190032002900025039501A9A0209E
:10255000C005FFF71BFC144E144830607560B56071
:10256000F560802030618020400070618020C000D4
:10257000B061F56135623000FEF7CCFC002801D077
:10258000FFF7D8FBE664B46206B070BD387500088A
:1025900078040020002401402000001440000018AE
:1025A000341002402C100240200500200800024098
:1025B0008B480168096820220A430068026070475E
:1025C00080B500F0F3F80423864A874902F074FFCF
:1025D000864802F0BBFF86A002F0B8FFFFF7E8FFD5
:1025E00001BDF8B584B006000024250030000328A2
:1025F00030D008283DD00A2806D00D2817D01B2837
:1026000042D05B2855D077E07AA70D21380002F040
:102610009DFF3100380002F099FF774807008037AE
:102620003968445472A002F091FF38688FE071A7B6
:102630003100380002F08AFF0A21380002F086FFDC
:102640006D48070080373968445469A002F07EFF66
:1026500038687CE084270294674C029A3900200095
:10266000FFF76AFB65A002F071FF61A002F06EFF48
:102670006CE0634C2068002805D062A002F066FF81
:102680002068401E206061E00820039002946F469D
:10269000029A03993800FFF74FFB25002800C0B2CB
:1026A000082805D2300069462A00D2B288546D1C31
:1026B0004CE068462900C9B24118491E09781B2917
:1026C00009D12900C9B2082915D231002A00D2B295
:1026D00081546D1C0FE0310046A002F037FF4648E0
:1026E000010080310A687F2A05D232000B68C2548B
:1026F0000868401C086029E068462900C9B24118F2
:10270000891E09781B2911D12900C9B24118491E17
:1027100009785B290AD12900C9B2082904D23100FD
:102720002A00D2B281546D1C25000FE0310031A087
:1027300002F00CFF3048010080310A687F2A05D280
:1027400032000B68C2540868401C0860002005B0C5
:10275000F0BD010028480860802280587047F0B51D
:1027600085B0002202A9284802F0CCFE0400002C0B
:102770001AD104980D2817D10298FFF732FF0128CB
:1027800010DB6846FFF7E5FF01280BDB01A9009885
:1027900003F098F984250026174F320029003800ED
:1027A000FFF7CAFAFFF704FF05B0F0BD16487047FF
:1027B0001FB500240A480168C96989060ED500685A
:1027C000406A04002000C0B20090012001900D205A
:1027D0000290FFF7EBFF694602F082FE1FBD00008A
:1027E000F8030020D407002040090020647000088E
:1027F000243E000025630000740200200D0A000042
:10280000F402002008200800B809002080B5012249
:10281000802189016B48FFF7B7FB01BD80B500221D
:10282000802189016748FFF7AFFB01BDE0B50020BB
:10283000009001900420029000F06DFB694602F0C8
:102840004FFE07BDE0B500200090019005200290EA
:1028500000F061FB694602F043FE07BDF0B585B0AC
:10286000594C012520202554192021216054FF2096
:102870002221605423216054082604965348039073
:1028800027002637049A0399380003F0FBF920004B
:102890002E3000273900017039002F22A1540296F2
:1028A00001970090019A02990098FFF745FA009865
:1028B00007203C2160543D2026543E2025543F20D3
:1028C000275405B0F0BDF1B586B000246846047009
:1028D0006846007E002806D0022825D00BD30428A5
:1028E00046D031D34CE03A48D121C170AA210171C0
:1028F0000520029053E0FFF7B1FF354CD620E07081
:10290000314D2420285C20712520285C60714426EC
:10291000A71D32002900380003F0B4F9AA204A218B
:1029200060544B2002903AE0C82003F0B8F92848E0
:102930002721C17001210171022242718171AA21F6
:10294000C171082002902AE0214D5920E87008202A
:1029500004901E4E2F1D049A3100380003F092F9A6
:102960002C7304206873AA20A8730F20029016E02D
:102970001748D121C170AA210171052002900EE0F3
:1029800001206946087013480078C00707D5FEF794
:10299000BBFA0100E123A64AA64803F097F968466E
:1029A000007800280BD10A4801900299019800F0A4
:1029B0000EFBA1480178032901D10421017007B061
:1029C000F0BD000000040050F8050020B009002010
:1029D0006800002044010020F5B589B00F000024F4
:1029E000E44300206946087009A80078002809D04F
:1029F000022800D1A2E072D3042800D1CBE000D29B
:102A0000C8E003E14D20694608700A9869460978D4
:102A100088420ED0BE480078C00708D5FEF774FA89
:102A200081235B00BB4A0100844803F04FF920007A
:102A3000FCE044200790381D0690B74D2E00079A01
:102A40000699300003F01EF9082005902800263072
:102A50000490A84E059A0499300003F013F9042657
:102A60000396380049300290A3480190039A0299D6
:102A7000019803F007F9019804229F49A94803F03F
:102A800033F900280ED0A2480078C00708D5FEF719
:102A90003BFAFF2310339F4A0100A54803F016F9C3
:102AA0002000C3E02220285CFF2814D02320285CCB
:102AB000FF2810D096480078304208D0FEF724FA5C
:102AC0008A235B00934A0100A64803F0FFF8052023
:102AD0005949087002E0012057490870A5E00A989A
:102AE00007280ED08A480078C00708D5FEF70CFAF0
:102AF00091235B00874A01009B4803F0E7F8200020
:102B000094E004223900994803F0EEF8002811D02F
:102B1000B87900280ED07E480078C00708D5FEF7A7
:102B2000F3F9FF232C337B4A0100914803F0CEF8E0
:102B300020007BE002204049087076E00A980728D0
:102B40000ED073480078C00708D5FEF7DDF9FF23E3
:102B50003833704A0100A24803F0B8F8200065E05D
:102B6000072239009F4803F0BFF800280ED06848BC
:102B70000078C00708D5FEF7C7F99F235B00654AB8
:102B80000100AA4803F0A2F820004FE003202A49E0
:102B900008704AE049E04D20694608700A98694685
:102BA000097888420ED05A480078C00708D5FEF749
:102BB000ABF9A6235B00574A01009D4803F086F855
:102BC000200033E044200290381D0190524D2E0029
:102BD000029A0199300003F055F82220285CFF2862
:102BE00013D02320285CFF280FD0494800784007E5
:102BF00008D5FEF789F9FF235633464A01005948A4
:102C000003F064F805200C4908700EE04048007895
:102C1000C00708D5FEF778F9AE235B003D4A0100F6
:102C2000BE4803F053F8200000E000200BB0F0BDD8
:102C3000E474000870710008DB0900202C6E0008A5
:102C40007FB505000026F64300F06CF9FA229200E9
:102C5000694602F057FC0400002C09D102980628AE
:102C600006D1019A00992800C0B2FFF7B5FE040012
:102C7000200004B070BDFEB5FF20019000273D008C
:102C8000032D2CDA3B4E3078FFF71DFE30780328F9
:102C900001D1019723E03078FFF7D2FF019001982E
:102CA00000281CD01A4C207840070AD5FEF72CF9D2
:102CB00031780091FF239A339B4A0100984803F032
:102CC00005F82078C00708D5FEF71EF9CD235B0074
:102CD000954A0100954802F0F9FF6D1CD0E7F7BD59
:102CE00000B593480078042801D1012000E00020BD
:102CF00000BD0000B0090020CC09002000B58C48C0
:102D00000078052801D1012000E0002000BD00006E
:102D100044010020F0720008F80500208548007882
:102D200070470000B80000200020824908707047FA
:102D3000EC6E000880B580480078400708D5FEF7A3
:102D4000E3F8FF23E8337D4A01007D4802F0BEFF2F
:102D5000012078490870FFF761FD7A4802F0EDFF25
:102D600001BD000094710008306D0008BC00002017
:102D70005C6E0008DB09002080B5FFF7B1FF00287A
:102D800006D1FFF7BBFF002802D1FFF774FFF4E77D
:102D9000FFF7B4FF002802D0FFF7CCFF05E0FFF7F4
:102DA0009FFF002801D0FFF74DFD01BD80B5FFF763
:102DB00062FFFFF7A3FF00280FD1634802F0BDFFB9
:102DC0005D480078400707D5FEF79EF85F4B604AE4
:102DD0000100604802F07AFF01E0FFF7ABFF01BDA0
:102DE000C46C0008C400002080B5564802F0AFFF54
:102DF000594802F0ACFFFFF709FD01F052F800F06E
:102E0000BAF901F04AF8FA20400002F048FFFFF753
:102E10008BFF0320FFF757FD0320454908704A4800
:102E200002F095FFFFF70EFD01BD0000646D000884
:102E30008C6E000880B500F06EF80423474A4849BC
:102E400002F03AFB00F06EF80423464A464902F0CD
:102E500033FB464B012246493A4802F055FF454BA9
:102E60000122FA21C900384802F04EFFFFF7DEFCCC
:102E700001BDFEB5002269463F4802F043FB060053
:102E8000002E3BD10298032818D0042804D005282E
:102E900011D0072823D031E044250024374F2200E9
:102EA00029003800FEF748FFFA20400002F0F7FE44
:102EB000FFF762FF22E0FFF779FF1FE0214802F0F1
:102EC0003CFF1D480078400708D5FEF71DF80100BB
:102ED0009E239B002A4A2B4802F0F8FE0EE0FFF7E3
:102EE00083FF15480078400708D5FEF70DF89F23AB
:102EF0009B00234A0100244802F0E8FEF7BD70471A
:102F0000E0B50020009001900520029069461A4823
:102F100002F0E6FA07BD1848704700001470000878
:102F2000186F000819487047F07400083C700008DA
:102F3000DB090020DC090020440100205474000853
:102F4000BC6E0008180900202C09002013020000A4
:102F500094730008446F0008B40800207407002030
:102F6000F0080020A407002004090020FF2E00081C
:102F7000C0270900012F0008A0090020F805002043
:102F800064740008FC710008B8710008A8090020EA
:102F900010B58C4C962252008B492000FDF7A5F904
:102FA00020680068102101432068016010BD80B5D1
:102FB0000423864A8649874802F07EFA0423864A1B
:102FC0008649874802F078FAFFF7E2FF01BD38B57D
:102FD00005000C0072B6220092B229007948FDF774
:102FE00026F962B631BDE0B5CA4802F058FE00F0DD
:102FF00049FF00200090019007200290FFF78BFF0F
:10300000694602F06DFA07BDF3B5D1B00026340071
:1030100004A80C21FEF7A0FE529B519A0FA90AA802
:1030200001F099F907003800C0B200280CD1BA4865
:103030000078C00707D5FDF767FF9823B74A01005E
:10304000B74802F043FE5DE03800C0B2012841D12C
:10305000B1480078C00709D5FDF756FF5199009196
:103060009C23AE4A0100AF4802F030FE0DAC0FA920
:103070000AA801F057FA2070207800281AD10AA86F
:10308000817A80220A4382724F4D0FAA0AA9280032
:1030900001F088FA611C02F0E1FE0795601C02F065
:1030A000E7FE08900820099000F066F907A902F0F1
:1030B00017FA05E000F0E3FE002801D0FFF793FFC8
:1030C0000196029603200390FFF725FF01A902F065
:1030D00007FA17E03800C0B2032813D15298082825
:1030E00010D106225199A64802F0FEFD002809D110
:1030F00004A800F02AFB5198807904A9087204A85A
:1031000000F02DFB53B0F0BDF8B50825BF4C9D4E27
:10311000371D2A002100380002F0B4FD12213000D2
:10312000FFF755FFF1BDF1B582B000200090964F3A
:103130004220F8700826B54C3D1D320021002800C1
:1031400002F0A0FD02A80178397341788278120656
:10315000120C114389B2090A7973417882781206F8
:10316000120C1143B973AA20F873102529003800F6
:10317000FFF72DFFF7BDF8B50026F6430127002520
:103180002C002000C0B2032818DAFFF7BDFF03208F
:1031900000F036FA0600002E01D12F000EE05E4846
:1031A0000078C00708D5FDF7AFFE010081235B0062
:1031B000764A774802F08AFD641CE2E73800C0B224
:1031C000F2BD000078030020480100201407002011
:1031D000C80800209009002044070020DC080020D7
:1031E00098090020F1B584B00020C043019001256A
:1031F00028006946C870002069464870002069466A
:1032000088706846007C01282CD10327002002909A
:103210009D4E3400029A39002000FEF78DFD0220F9
:10322000307000242000C0B203281BDA3068FFF79A
:103230007AFF012000F0E4F901900198002802D102
:10324000684685700EE034480078C00708D5FDF761
:103250005BFE93235B004F4A01004F4802F036FDAE
:10326000641CDFE76846007C002803D0684680784D
:10327000012842D100206946087068460078474915
:103280000978884239D200242000C0B203282EDAFF
:103290000325424869460978032251434018401CDF
:1032A0000290794E37002A000299380002F0EAFCB9
:1032B0003068FFF738FF012000F0A2F90190019873
:1032C000002805D168464078401C694648700EE0E9
:1032D00011480078C00708D5FDF716FE01009D23B0
:1032E0005B002C4AC34802F0F1FC641CCCE7684642
:1032F0000078401C69460870BFE768464078274957
:103300000978884202D100206946C8706846C078B2
:1033100005B0F0BD204E000044010020807300087D
:10332000EC6F00084C7100081FB500226946B248D6
:1033300002F0E8F80400002C1DD10298082802D001
:10334000092814D017E001990098FFF740FE00F01B
:1033500093FD002804D0C82002F0A1FCFEF7CBFEAC
:1033600000F08DFD002801D0FFF73DFE03E001993C
:103370000098FFF749FE1FBD9F4870479F48704760
:10338000100000205400002018000020D87200080F
:10339000CC6D000868720008FC6C0008540900201D
:1033A000F7B5C8B0002426000025ED434A9B499A92
:1033B00006A903A800F0CFFF6946C8706846C07828
:1033C000002801D1280012E16846C078022800D008
:1033D0000CE148A8007803281CD14A98112801D094
:1033E000280004E10820029008480190C34E371DD0
:1033F000029A0199380002F045FC112249993000E7
:1034000002F072FC002803D02800F0E0B009002090
:103410002500EBE048A80078012800D0E6E0200075
:10342000694608702000694688700020C0436946DC
:1034300048704A98112804D04A980F2801D02800D3
:10344000D5E011480078042801DB2800CFE00820EF
:103450000290AB480190AB4E371D029A019938009B
:1034600002F010FC0C224999300002F03DFC0028CB
:1034700001D02800BBE004480178022906D12500CC
:1034800002216A4611700EE0C809002001786A46E0
:10349000117049994A9A8918491E0978002901D062
:1034A0002800A4E0250069460978012950D19649F1
:1034B0008A79052A00DB94E02200D2B2052A24DAB8
:1034C0002200D2B203235A438A18D279012A16D194
:1034D0002200D2B203235A438B181A7A5E7A360638
:1034E000360C3243437886783606360C334392B234
:1034F0009BB29A4207D101226B469A7003E02200E8
:1035000052B26B465A70641CD6E76A469278002A1B
:1035100067D16B4601229A56002A62D401226C467A
:103520000123E35603246343CB18DA71427883788E
:103530001B061B0C1A436B460120185603235843E5
:1035400008180272120A42728879401C887148E099
:1035500069460978022910D16B4821008171210048
:103560000A00D2B2052A3CDA22000B00DBB20326A5
:103570007343C318DA71491CF2E7694609780329D5
:103580002FD121000A00D2B2052A2ADA5E4A0B00A6
:10359000DBB203267343D318DB79012B1FD10B0059
:1035A000DBB203267343D618337A777A3F063F0C93
:1035B0003B43467887783F063F0C3E436F46BE80CC
:1035C0006E46B6889BB2B34209D10800C0B203234D
:1035D00058431018C4719079401E907101E0491C45
:1035E000D0E74A224849002000F018FC28004BB0E0
:1035F000F0BD0000FC6D0008900900209809002033
:103600007FB505000026F643FFF7B8FEC8229200FA
:10361000694601F077FF0400002C09D102980A28BE
:1036200006D1019A00992800C0B2FFF7B9FE040044
:10363000200004B070BD07B500F02CFC002807D0B6
:103640000A200290FFF79AFE694601F049FF06E062
:1036500009200290FFF790FE694601F041FF07BD87
:10366000F8B584B00026370072B61025274C2068C4
:10367000C0692840002816D0206805622000FCF7A9
:10368000A3FEE06E0068406869460880962040000E
:1036900069460988401A0700380080B2FF212E31A0
:1036A000884200DB3700380080B2002814D0184868
:1036B0000190380080B20290FFF730FB012804D15E
:1036C00001A807C8FFF7B7FF06E006200390FFF741
:1036D00029FC01A901F004FF2000FCF7BFFE96229F
:1036E00052000B492000FCF700FE206800680543EB
:1036F0002068056062B605B0F0BD00004000002003
:10370000B00900202C000020D40400207803002001
:103710004801002010B500F04BFA04239A4A9B4957
:1037200001F0CAFE00F046FA0423994A994901F0D3
:10373000C3FE994C994B0122FA218900200002F026
:10374000E3FA200002F0F9FA10BD10B5040072B6D9
:103750002000C5490A2202F095FA62B610BDF8B5FC
:10376000040072B60A252600BF4F2A003100380037
:1037700002F088FA62B6F1BD80B5BC49002008802D
:103780000122BB4801F064FC01BD80B5B84801F0DE
:10379000B6FC01BDB6480168896A20220A43016867
:1037A0008A620168896A4022914300688162704799
:1037B00080B5FFF7EFFF0020AE490870FFF7E5FF87
:1037C00001BDAB480168896A40220A4301688A62E8
:1037D0000168896A2022914300688162704780B540
:1037E000FFF7EFFF0120A3490870FFF7CEFF01BDEF
:1037F000F1B582B00C000025ED4300206946088039
:10380000022C17D10226029801906F4632000199CE
:10381000380002F037FA68460088B7494143081378
:103820006946088068460188282048431521FEF72C
:1038300085F90500280000B2FEBDF1B582B00C008C
:103840000025ED43002069460880022C18D102268D
:10385000029801906F4632000199380002F012FA86
:1038600068460088A44941430813694608806846B1
:10387000018815204843FA218900FEF75FF9050009
:10388000280000B2FEBDF3B581B0002738006946BC
:1038900008800026F6433C0002990198FFF7A8FF34
:1038A00069460880009800B20021C943884227D0A9
:1038B000009800B2C049B84A127802235A4388528D
:1038C000B5480078401C0321FEF738F9B248017072
:1038D0003D002800C0B2032808DAB7482900C9B261
:1038E00002225143405A24186D1CF2E720000321A4
:1038F000FEF724F90600300000B2512800DB503EEC
:10390000300000B2FEBD07B5AC494879012837D177
:103910004A7888780006000C02436846838892B291
:103920009A4212D2417A00292AD101214172A44837
:103930000078400708D5FDF7E7FA9C235B00B54AFD
:103940000100B54802F0C2F91AE0CA780B791B06EB
:103950001B0C1A43818892B2914211D2417A0129FB
:103960000ED10021417296480078400708D5FDF736
:10397000CBFAA0235B00A74A0100A84802F0A6F9F1
:103980006846FFF7ECFE07BDB40600208C08002057
:10399000E4060020A0080020B40800209D3B000899
:1039A000F1B586B00F000026F643009600242000F3
:1039B0006946888002A80C21FEF7CEF902A8FFF71D
:1039C000C4FE39000698FFF75EFF0500280000B22C
:1039D000B04206D002A8858002A807C8FFF793FF6F
:1039E0000094009807B0F0BDF1B586B00F00002537
:1039F000ED430095002420006946888002A80C2130
:103A0000FEF7AAF902A8FFF7A0FE39000698FFF713
:103A100014FF0600300000B2A84205D002A846807C
:103A200002A8FFF79CFE0094009807B0F0BD3EB5D9
:103A30000024E443FA2252006946794801F062FD0D
:103A40000500002D0ED10298012802D0022805D0D1
:103A500008E001990098FFF7A3FF03E0019900989F
:103A6000FFF7C2FF28003EBD64090020D4090020F2
:103A700078040020D9090020F8B50026F643002775
:103A80003C00FFF795FEFFF777FE3D002800C0B22F
:103A9000032813DAFFF7CBFF0600002E0ED04848AC
:103AA0000078C00708D5FDF72FFADB235B005D4ADD
:103AB00001005D4802F00AF96D1CE7E7FFF78FFE91
:103AC000FFF75AFE3C002000C0B2032813DAFFF7CC
:103AD000AEFF0600002E0ED039480078C00708D58A
:103AE000FDF712FA0100E3235B004E4A4F4802F053
:103AF000EDF8641CE7E7F1BDE40C00003EB5684654
:103B00000C21FEF729F96846FFF71FFE0024484DF7
:103B10002878012820D1687800280AD1A879E97985
:103B20000906090C08434349096840186946C880DA
:103B30000FE0687801280CD102F068F90400A81C95
:103B400002F096F9201AE1210901FDF7FAFF694612
:103B5000C8806846FFF703FE37BD80B5FFF78CFFCE
:103B6000FFF7CCFFFFF7DAF8012801D100F092F956
:103B7000314802F0E2F801BD1FB5002269462F4826
:103B800001F0C0FC0400002C04D10298002801D1EF
:103B9000FFF7E3FF1FBD0000DA090020E0B50020B9
:103BA0000090019002906946244801F099FC07BDFD
:103BB000224870471A48704788090020D404002022
:103BC000440100201FB502241D4800682040002841
:103BD0001FD072B61B48016821430160FFF7D5FD75
:103BE00019480090019419480178002907D1012053
:103BF0000290FFF7DFFF694601F072FC08E00078F1
:103C0000012805D10294FFF7D5FF694601F068FC51
:103C100062B61FBD347400080471000828710008E2
:103C200080090020447400089C6F0008C46F0008DD
:103C300070090020C4090020B40800207809002081
:103C40000000024004000240D4090020D9090020ED
:103C5000FEB504002078800600D491E0207880062C
:103C6000002069460870802040055F4909680140CE
:103C7000002906D15C490A681043086001206946A2
:103C8000087080277F00594D28683840002811D1DE
:103C9000286838432860FDF737F9029028683840D3
:103CA000002807D1FDF730F90299401A6528F5D3AD
:103CB000032098E04E480068C021890301406068F5
:103CC000C0229203024091420BD0C0208002626861
:103CD0000240824205D146480068800301D5012098
:103CE00081E0444DC026B60228683040019001981A
:103CF000002829D0019861683140884224D020787A
:103D0000800621D528683C4901400191286880211E
:103D10000903014329602868384901402960019856
:103D2000286001980740002F0ED0FDF7EDF80290B3
:103D30002868800508D4FDF7E7F80299401A304951
:103D40008842F5D303204EE060683040B04209D18C
:103D5000274801682B4A0A406168C0239B030B4037
:103D600013430360286861680E4006432E6068466E
:103D70000078012804D11C480168234A0A400260E7
:103D80002078C00706D52148016803229143A26824
:103D90000A4302602078800706D51C4801680C227F
:103DA0009143E2680A4302602078400706D517482D
:103DB0000168174A0A402169114301602078000711
:103DC00006D512480168134A0A406169114301602F
:103DD0002078000606D50D4801680F4A0A40A169FF
:103DE000114301600020FEBD381002400070004009
:103DF0000010024050100240FFFFFCFFFFFFF7FFE2
:103E000089130000FFFFCFFFFFFFFFEF4C100240C0
:103E1000FFF3FFFFFFCFFFFFFFFFF3FF70B50600CB
:103E20000C00150002F030F811483618002D0ED0A5
:103E30001048864202D302F03FF80AE022783100AF
:103E4000002002F040F8761C641C6D1EEEE702F0C4
:103E500033F870BD00B5064BC018002A05D00378B2
:103E60000B70401C491C521EF7E700BD000000000B
:103E70000000080800080808BE4800787047BE48DF
:103E8000007870470020BC49087070470120BA498B
:103E900008707047B948007870470020B74908702B
:103EA00070470120B5490870704730B587B00500EC
:103EB00004A80C21FDF750FF2800C0B2652821DAC4
:103EC00068461021FDF748FF602000902800C0B22E
:103ED0000190002002900390A94C04226946200022
:103EE00000F000FC002801D0FDF724FF04A8FFF734
:103EF0002CFC04A8457004A8FFF731FC0421200025
:103F000000F0DAFB07B030BD3EB504219C4800F05C
:103F1000D3FB68460C21FDF71FFF6846FFF715FC31
:103F200001252800694608706846FFF718FCCD4C4B
:103F30006078002809D12078002801D1280020705D
:103F400001F064FFA11C01F089FF657037BD3EB52B
:103F500068460C21FDF700FF6846FFF7F6FB0020DE
:103F6000FFF7A3FF0025684605706846FFF7F7FBDB
:103F7000BC4C65702078012812D1BB4D01F046FF82
:103F80002860A01C01F074FF2968081AE1210901CA
:103F9000FDF7D7FDE080D5480168E2888918016007
:103FA00037BD70B5040000252E00A078002802D18E
:103FB000FFF7CDFF01E0FFF7A7FF3000C0B22018E8
:103FC0008570761C3000401C207070BD70B50400F8
:103FD00000252E00A078652806DB01203100C9B23B
:103FE00061188870761C07E0A078FFF75EFF30004C
:103FF000C0B220188570761C3000401C207070BD47
:1040000001205C490870704738B5040000200500A5
:104010002900C9B2611888706D1C2800401C2070EE
:10402000FFF7EEFF31BDF1B586B0002738006946D5
:1040300048710126300069460871380069464870A9
:1040400038006946087038006946C870380069460B
:104050008870069800780C287BDA06980078022190
:10406000FDF76CFD002974D10698807869460870C8
:104070006846007805286CDA06980078801E0221D0
:10408000FDF75CFD69464870994880796946497832
:104090004018062806DB68460078012802D1300067
:1040A0006946887068460078042805D13000694662
:1040B000087030006946C87068468078002848D18A
:1040C0006846007802280ED1102004900397894F8B
:1040D0000297039A04990298FDF72EFE02983E700B
:1040E000022078702BE068464078824908703800DA
:1040F00004003D00200069464978C0B288421ED2C3
:104100007C48694609782200D2B203235A438218B8
:1041100051700221039106992A00D2B28918C91C54
:1041200002912100C9B2032251434018861C039A10
:104130000299300001F0A6FD641CAD1CDAE7FFF720
:10414000B0FE6846C078FFF74DF869460871FFF782
:10415000A4FE6846007906996A46527989188870E3
:1041600068464079401C0100491C069A117007B04E
:10417000F0BD0000D6090020D7090020D809002092
:1041800078060020F0B585B0040000263500300028
:10419000694608702078072809D001202900C9B293
:1041A000611888706D1C2800401C207058E00620A3
:1041B0000290A01C019003AF029A0199380001F00F
:1041C00061FD03A80178012909D001202900C9B2A5
:1041D000611888706D1C2800401C207040E04179F7
:1041E000012911D1417882781206120C1143C2784C
:1041F00003791B061B0C1A4389B292B291420ED26C
:104200000120694608700AE04179002907D10021A0
:10421000C170090A017100214170090A8170684664
:104220000078002809D001202900C9B261188870DF
:104230006D1C2800401C207012E02800C0B220181D
:1042400086706D1C2800401C2070B04E300003A901
:10425000062201F017FD4A2231000020FFF7DEFDA3
:1042600005B0F0BD70090020C009002070B5040041
:10427000002635002800C0B2201886706D1C28006A
:10428000401C2070FFF702FE70BDF1B582B0002423
:10429000250002982900C9B2401884706D1C2000C6
:1042A000C0B205281DDA99482100C9B20322514342
:1042B0004118C979012912D102262100C9B203226D
:1042C000514340180830009002982900C9B24018A4
:1042D000871C32000099380001F0D4FCAD1C641C2E
:1042E000DDE72800401C02990870F7BDC4090020D2
:1042F000D404002054090020F1B584B00024250026
:1043000068460C21FDF728FD6846FFF71EFA049861
:104310002900C9B2401884706D1C0A246E460498A6
:104320002900C9B24018871C22003100380001F072
:10433000A9FC0A352800401C0499087005B0F0BD9E
:10434000002211000B00DBB2C3189A70491C0A004E
:10435000521C02707047F3B585B016001D00002492
:1043600020006946487003226949300001F0BCFC16
:10437000002802D10220C0B2A8E003226549300023
:1043800001F0B2FC002802D10320C0B29EE03078D8
:10439000682804D17019401E0078162802D0200029
:1043A000C0B293E0FF200E30854202D32000C0B29D
:1043B0008CE00B2004900396059F049A0399380023
:1043C00001F060FC28000B38029030000B300190A7
:1043D000069F029A0199380001F054FC0598807AF2
:1043E000400645D52000694648802000694608708F
:1043F000022002900598C01D019000AFBF1C029AD8
:104400000199380001F03EFC20000100C9B20529E5
:104410001CDA3E490200D2B203235A438A18D279E9
:10442000012A11D10200D2B203235A438A18117A09
:10443000537A1B061B0C19436A46528889B28A427A
:1044400002D101216A461170401CDEE70822324980
:104450000598401C01F048FC002802D10120694663
:1044600008706846007800280DD12000C0B22DE009
:1044700008222A490598401C01F036FC002802D089
:104480002000C0B222E0069800780E30A84202D088
:104490002000C0B21AE0E91E701C01F06FFD711916
:1044A000891E0978C0B2814202D02000C0B20DE05E
:1044B00006980078019034000D340698871C019A04
:1044C0002100380001F0DEFB0120C0B207B0F0BDD2
:1044D00038B5040000201249627808235A438D58E9
:1044E0002900002901D02000A84731BD38B50400BB
:1044F00000200B49627808235A4389184D68290027
:10450000002901D02000A84731BD0000D4040020BC
:10451000000000200400002008000020B009002056
:10452000E86B0008F8B504000F00002635003000E5
:10453000A17AC90702D501210D0010E00221A27A5B
:104540000A4201D00D000AE00421A27A0A4202D0F8
:1045500003210D0003E0A27A120700D50D00A17A15
:10456000490601D50126FFE72800C0B2012806D080
:1045700015D303280BD006D304280CD00FE0380045
:10458000FFF7A6FF0BE03800FFF7B0FF07E03800A9
:10459000FFF79EFF03E03800FFF7A8FFFFE73000BA
:1045A000C0B2F2BDF2B586B00400170000210800C9
:1045B0000A006B465A706A4611700B3005900B204A
:1045C0000490069803902500049A0399280001F0AE
:1045D00059FB3E78E672787820733000C0B20290C2
:1045E000B81C019025000D35029A0199280001F0B0
:1045F00049FB05983100C9B2891C4518A91E601CE9
:1046000001F0BCFC01006019401E017016206055CD
:104610006D1C280007B0F0BD704710B504002000E5
:1046200080B2FFF7F9FF10BD0548016801220A4377
:10463000026004480168802252050A430260704704
:10464000341002403810024010B50400002C01D193
:10465000012014E03920205C002805D100203821F9
:1046600060542000FDF763FE022039216054211DB3
:10467000206800F0BBF8012039216054002010BDF3
:1046800010B50400002C01D1012014E03920205C79
:10469000002805D10020382160542000FDF752FE8B
:1046A000022039216054211D206800F09FF801206C
:1046B00039216054002010BD38B504000D000122DE
:1046C0002900206800F036F9206880684107490F0A
:1046D000062905D020680068012202432068026094
:1046E000002032BDF8B504000E0017003820205C11
:1046F000012801D1022075E001253820255402202F
:10470000392160543800002806D004281BD008281E
:1047100032D00C2847D05FE03100206800F08FF8DD
:1047200020688069082101432068816120688069D0
:10473000042188432168886120688069F168014309
:104740002068816148E03100206800F091F820681D
:1047500080698021090101432068816120688069A6
:10476000214901402068816120688069F16809025F
:104770000143206881612FE03100206800F094F847
:104780002068C069082101432068C1612068C069B0
:10479000042188432168C8612068C069F168014329
:1047A0002068C16118E03100206800F097F82068A7
:1047B000C0698021090101432068C1612068C06986
:1047C000094901402068C1612068C069F168090297
:1047D00001432068C161FFE73920255400203821BA
:1047E00060540020F2BD0000FFFBFFFF10B502681F
:1047F0008023DB05984205D0464CA04202D0464CAF
:10480000A04204D17024A24314004A682243984273
:1048100005D0404B984202D03F4B984203D13F4BCA
:104820001340CA681A4380239A430B6913430360F9
:104830008A68C2620A6882620122426110BD30B495
:10484000026A01239A430262026A436885697024FE
:10485000A5430324A5430C682C430225AA438D6875
:104860001543436084614A684263056230BC704707
:1048700070B4026A10239A430262036A4268846930
:10488000274D2540254E2E400C6824023443202518
:10489000AB438D682D011D43426084614B68836387
:1048A000056270BC7047000030B4026A1D4B1340B3
:1048B0000362036A4268C5697024A5430324A543C3
:1048C0000C682C43184D1D408B681B022B43426023
:1048D000C4614D68C563036230BC704770B4026A3E
:1048E000124B13400362036A4268C4690C4D2540B1
:1048F0000A4E2E400C68240234430D4D1D408B6837
:104900001B032B434260C4614D680564036270BCA5
:10491000704700000008014000140140FFFCFFFF49
:10492000FF8FFFFFFFFEFFFFFFFDFFFFFFEFFFFF1A
:10493000FFDFFFFF70B41F2301240D001D40AC40BA
:10494000056AA5430562056A0E00334016009E40C5
:104950002E43066270BC704730B502003820105CF0
:10496000012801D102201BE001203823D05402236A
:104970003924135513685D6813689C6870239D4340
:104980000B682B438025AC434D6825431468636056
:104990001468A560392410550020382410550020D3
:1049A00030BDFEE710B50400002C01D1012068E005
:1049B0002120205C002805D1002020216054200007
:1049C000FDF749FD022021216054CA202168486278
:1049D000532021684862200000F0ECF9002807D03D
:1049E000FF2021684862042021216054012048E012
:1049F000206880688749014020688160206880685D
:104A0000616822690A43A1691143014320688160FA
:104A1000E0682168086120680069A1680904014311
:104A2000206801612068C068802188432168C860CF
:104A30002068C06C032188432168C8642068C06C6A
:104A4000E16962690A4302432068C26420688068A1
:104A500080060FD4200000F093F900280AD0FF2030
:104A600021684862042021216054002020216054E4
:104A7000012006E0FF2021684862012021216054C6
:104A8000002010BDF7B504002020205C012801D1D2
:104A900002208CE0012528002021605402202121E1
:104AA00060540298002820D120688068400602D413
:104AB00000200199C8700198007800F09DF9070066
:104AC0000198407800F098F906000198807800F08D
:104AD00093F9FFB23904F6B232020A43C0B210436E
:104AE0000199C9780E04064314E0206880684006E6
:104AF00002D400200199C87001980078000401993F
:104B00004978090201430198807808430199C978DE
:104B10000E040643CA202168486253202168486277
:104B2000200000F047F900280AD0FF2021684862E1
:104B3000042021216054002020216054012036E00F
:104B40008C48304021680860206880688A490140AC
:104B500020688160206880680199C968019A12699B
:104B60000A430243206882602068C068802188432D
:104B70002168C8602068806880060FD4200000F09B
:104B8000FFF800280AD0FF20216848620420212174
:104B90006054002020216054012008E0FF2021689B
:104BA0004862212025540020202160540020FEBDB1
:104BB000F8B504000D0017002068806A686020685E
:104BC00000694004400CA86020680068694E0640F7
:104BD0003000000C8006800E28707F20310A0140D2
:104BE000697031000840A8703000000C4021084076
:104BF000E870002F0BD1287800F00DF92870687844
:104C000000F009F96870A87800F005F9A870002094
:104C1000F2BD0000BFFF8FFFF7B504002020205C2D
:104C2000012801D102207CE00125280020216054C8
:104C3000022021216054029800280AD1019840786E
:104C4000C00606D501984078EF2101400A3101984D
:104C500041700298002819D10198C07800F0CCF872
:104C600007000198407800F0C7F8060001988078A6
:104C700000F0C2F8FFB23904F6B232020A43C0B201
:104C80001043019909784E0306430DE00198C0785E
:104C9000000401994978090201430198807808438A
:104CA000019909784E030643CA20216848625320BF
:104CB00021684862200000F07DF800280AD0FF201B
:104CC0002168486204202121605400202021605482
:104CD000012026E029483040216848602068C068EB
:104CE000802188432168C8602068806880060FD4CE
:104CF000200000F045F800280AD0FF202168486213
:104D0000042021216054002020216054012008E06B
:104D1000FF20216848622120255400202021605472
:104D20000020FEBDF8B504000D00170020684068A3
:104D3000124E06403000000CE870300AC006C00E6B
:104D4000687030008006800EA870700B4007400F1E
:104D50002870002F0BD1E87800F05DF8E8706878D3
:104D600000F059F86870A87800F055F8A870002095
:104D7000F2BD00007F7F7F00FFFFFBFF3FFFFF00D2
:104D800038B504002068C068A02188432168C86045
:104D9000FCF7BAF805002068C068800607D4FCF765
:104DA000B3F8401B13498842F5D3032000E00020EC
:104DB00032BD000070B5040040262068C068304055
:104DC000002813D10020C0432168C860FCF79CF87C
:104DD00005002068C0683040002807D1FCF794F82F
:104DE000401B04498842F4D3032000E0002070BD3A
:104DF00000000000E903000000B5010000220800E7
:104E00000300DBB20A2B02D3521C0A38F8E7120166
:104E10001043C0B200BD0100C9B209090A225143C2
:104E20000007000F0818C0B27047FEE710B5040075
:104E3000002C01D10120FDE0606D002806D100208A
:104E4000A065502160542000FDF760FB1021606DCB
:104E50000840002805D10420226892680240002AF8
:104E600007D0606D0143616500205021605401202E
:104E7000E0E0616D704A0A400221114361652168DA
:104E800089688907890F012905D121680A681100FD
:104E9000C907C90F00E00021002936D16168C0228E
:104EA0001206914209D061688022D205914204D055
:104EB00061688022120691420CD12168096989003B
:104EC0008908226811612168096962680A432168BA
:104ED0000A610EE021680969890089082268116168
:104EE00056490A68564B13400B600A6863681343BF
:104EF0000B602168C968182291432268D16021683B
:104F0000C968A2680A432168CA604C490A684D4BC7
:104F100013400B600A68636B5B0613430B608021D0
:104F20004905226892680A40002A04D122689268E2
:104F30001143226891602168C968434A0A40216888
:104F4000CA602169022900D000202168C968E2688E
:104F500010432022A25C520302432C20205C40001C
:104F60001043226B0243A06980031043E269D2031D
:104F700002430A432068C260606AFF21C23188424E
:104F800007D02068C068616AA26A0A4302432068A9
:104F9000C2602120205C012813D12020205C002841
:104FA00007D12068C0688021490201432068C160A0
:104FB00007E0606D202101436165A06D012101437F
:104FC000A165E06B012816D1206800691F490140E6
:104FD0002068016120680069216C626C0A43A16C41
:104FE00011430143206801612068006901210143E8
:104FF0002068016109E020680069C00705D52068C4
:1050000000690121884321680861206840690721FF
:1050100088432168486120684069A16B014320688A
:1050200041610020A065606D022188430121014398
:105030006165002010BD0000FFFEFFFF0827014052
:10504000FFFFC3FFFFFFFFFD1902FEFF03FCFFFF91
:10505000F7B5040000252800694608700427206879
:1050600080683840002844D15020205C012801D1BC
:10507000022043E00126300050216054E0690128FD
:1050800004D0200000F0E8F869460870684600780F
:10509000002831D1606D6B490140802040000843F9
:1050A0006065A565502025546748E16CC862674873
:1050B000E16C08636648E16C48631C202168086065
:1050C0002068406810210143206841602068C06862
:1050D00006432068C660029B019A206801004031A7
:1050E000E06CFBF765FF20688068074320688760F5
:1050F00002E002206946087068460078FEBDF8B5F7
:10510000040000252800694608705020205C012812
:1051100001D102203CE001263000502160542000E3
:1051200000F026F907003800C0B200282CD1206812
:10513000C068012188432168C860E06CFBF77EFFEE
:1051400007003800C0B2002803D0606D4021014341
:1051500061652068406810218843216848603800F4
:10516000C0B2002804D1200000F0BEF8070002E021
:10517000200000F0B9F83800C0B2002804D1606DFA
:10518000344901400E436665502025543800C0B2B2
:10519000F2BD38B505000C005020285C012801D173
:1051A00002204DE0012050216854286880684007A3
:1051B00008D5686D2021014369650020502168549D
:1051C00001203DE06068464988421DD02868806A19
:1051D00021684903490B0143286881622068400324
:1051E00008D540480168802212040A4302600A2060
:1051F00000F048F9206880031ED53A4801688022F3
:10520000D2030A43026017E02868806A21684903D4
:10521000490B8843296888622068400304D53148D7
:1052200001688B4A0A4002602068800304D52D483B
:105230000168884A0A40026000205021685400201A
:1052400032BD0000FEF1FFFFD3530008595400089F
:1052500067540008FFFEFFFF70B504000020050042
:10526000216889688907890F012905D120680168AB
:105270000800C007C00FFFE700282ED12068806813
:1052800089490140002909D0606D10210143616501
:10529000A06D01210143A16501201FE001262068C6
:1052A0008068304321688860012000F0EBF8FBF74C
:1052B0002BFE050020680068304000280DD1FBF768
:1052C00023FE401B0B28F5D3606D1021014361655F
:1052D000A06D0643A665012000E0002070BD00001F
:1052E000011000000827014070B5040000210D00E6
:1052F0000320226892680240012A05D121680A68C9
:105300001100C907C90FFFE700292FD0216889685C
:1053100005220A40012A0BD12168896802220A432A
:1053200021688A6021680860FBF7EEFD050009E04E
:10533000606D102101436165A06D01210143A165EC
:10534000012014E0012620688068304000280DD03C
:10535000FBF7DAFD401B0B28F4D3606D10210143ED
:105360006165A06D0643A665012000E0002070BDC8
:1053700070B50400002504262068806830400028AD
:1053800025D0206880683040002809D020688068D7
:10539000800705D42068806810210143206881605F
:1053A000FBF7B2FD050020688068304000280ED071
:1053B000FBF7AAFD401B0B28F5D3606D10210143BC
:1053C0006165A06D01210143A165012000E000207D
:1053D00070BD38B50400A56A686D502101400029F0
:1053E00030D1686D80218900014369652868C068F3
:1053F000C02109010140002920D12020285C00287B
:105400001CD128680068000718D528688068400704
:105410000CD4286840680C21884329684860686D6E
:105420002249014001200843686507E0686D20219A
:1054300001436965A86D01210143A965280000F0B9
:10544000A6FD03E02000E96C496B884731BD0000F0
:10545000FFFF7FFFFFFFBFFF38B50400A56A2800EC
:1054600000F096FD31BD38B50400A56A686D402195
:1054700001436965A86D04210143A965280000F076
:1054800088FD31BD18B50400094800680949FCF7DA
:1054900058FB604300900098002803D00098401EFD
:1054A0000090F8E711BD000017000080FFFEFFFF2D
:1054B000F800002040420F00F8B504000E0015006F
:1054C0001F00002C0BD0002E09D0002D07D06560E6
:1054D00026600C233A006168206800F05BFDF1BD96
:1054E00038B505000C00002D02D10020C04308E0B3
:1054F000002C02D10020C04303E02100286800F006
:1055000055FD32BDF4B505000C00002D02D1002080
:10551000C04315E0002C02D10020C04310E000F091
:1055200010F806002100286800F06DFD0700002F2C
:1055300005D000F006F8801B00998842F2D33800AD
:10554000F2BD80B5FBF7E0FC02BDFEE70EB430B55E
:10555000050003AC22002900002000F057FE02984D
:1055600030BC04B0004770B505000C001600A1A1C6
:10557000206800F01FFF002803D1FF2000F0A0FBEF
:105580000EE09DA1206800F015FF002803D1012046
:1055900000F096FB04E0B748FFF7D8FF022000E0D8
:1055A000002070BDF5B583B00E00002528006946C7
:1055B00008719249306800F0FDFE002854D12C009B
:1055C0006846058001252F008DA1706800F0F2FE6D
:1055D000002804D128008B494870641C14E08AA17B
:1055E000706800F0E7FE002804D102208549487069
:1055F000641C09E0A0A1706800F0DCFE002803D163
:10560000032080494870641CB068002809D0B06845
:1056100000F0BAFF6946088068460088002800D07C
:10562000641C2000C0B202281AD176480570694671
:1056300009888170090AC170FEF733FC0020FDF76C
:10564000D1FD0500FEF729FC2800C0B2002803D1D7
:105650008A48FFF77BFF68E08948FFF777FF64E03F
:105660008748FFF773FF60E08649306800F0A2FECC
:10567000002857D1280069464880280069460880DC
:105680002F002C0080A1706800F094FE002845D106
:10569000B068002805D0B06800F076FF6946488001
:1056A000641CF06800280BD0F06800F06DFF6946BC
:1056B00008806846008869464988884200D2641C90
:1056C0009649306900F076FE002803D101200700DA
:1056D000641C07E09249306900F06CFE002801D19B
:1056E0002F00641C2000C0B2032813D18D496846E6
:1056F00040884870000A887068460088C870000AB0
:1057000008714F714A220020FEF788FB8648FFF798
:105710001DFF0AE08548FFF719FF06E08348FFF701
:1057200015FF02E08248FFF711FF6846007905B0D7
:10573000F0BD00B585B07F48C179049181790391AE
:105740004179029101790191C17800918378427881
:1057500001787948FFF7FAFE05B000BD10B5FDF7F6
:10576000DDFA04002000C0B2002803D17348FFF71F
:10577000EDFE06E02000C0B2012802D1AF48FFF7DD
:10578000E5FE10BD38B5674CA1796D48FFF7DEFE28
:1057900000252800C0B2052817DA2800C0B203216E
:1057A00048432018C07901280DD12800C0B2032138
:1057B00048432018017A427A1206120C114389B22A
:1057C0009F48FFF7C3FE6D1CE3E731BD80B5554828
:1057D000C27801790906090C0A43417883781B06CF
:1057E0001B0C1943437992B289B29648FFF7AEFE7B
:1057F00001BD00006F6E00006F66660058750008FE
:1058000041000000540900204300000010B586B09C
:1058100003A80C21FCF7A0FA03A8FDF796FF8AA0C5
:10582000FFF794FE03AC2078012803D18748FFF7E7
:105830008DFE02E08648FFF789FE607A029008201C
:1058400020560190E0880090A388628861788148A2
:10585000FFF77CFE80482321435C2221425C21210A
:10586000415C7E48FFF772FE7D497E48FFF76EFE81
:1058700006B010BDA87300084400000008730008BB
:10588000BC730008607500084900000070B5050091
:105890000C00160074A1206800F08CFD00280AD1CD
:1058A000FFF747FFFFF75AFFFFF76CFFFFF78EFF89
:1058B000FFF7ACFF2FE06D49206800F07BFD00286A
:1058C00002D1FFF736FF26E06949206800F072FD3B
:1058D000002802D1FFF742FF1DE06649206800F072
:1058E00069FD002802D1FFF74DFF14E062492068EE
:1058F00000F060FD002802D1FFF768FF0BE05FA118
:10590000206800F057FD002802D1FFF77FFF02E07A
:105910005B48FFF71BFE002070BD000068750008A3
:1059200070750008D404002020730008D0730008AC
:1059300074740008B0090020986D000838730008DE
:10594000FC740008F5B583B00C004EA1206800F08F
:1059500031FD002805D1FEF7D7FA4B48FFF7F6FDD9
:1059600069E04AA1206800F025FD002805D1FEF776
:10597000EEFA4748FFF7EAFD5DE046A1206800F037
:1059800019FD002816D16068002854D0606800F026
:10599000FBFD05002800C0B2652807DA2800C0B268
:1059A000FEF783FA3C48FFF7D1FD44E03B48FFF7A0
:1059B000CDFD40E03A49206800F0FCFC002809D108
:1059C0003848FFF7C3FDFA20400000F068F9FCF703
:1059D00092FB30E03449206800F0ECFC002827D12D
:1059E000FDF7A2F908250295304E0196304F029A34
:1059F0000199380000F046F900952E4D2F1D009AB0
:105A00003100380000F03EF90F212B48FDF7DFFA96
:105A1000FA20400000F043F90F212800FDF7D7FAE3
:105A2000FA20C00000F03BF92448FFF78FFD02E0A8
:105A30002348FFF78BFD002005B0F0BDE47300089C
:105A400008750008B470000868623A0078750008AC
:105A500014750008706F0008F8050020BC7200087B
:105A6000CC00002084740008616C6C008075000814
:105A700088750008587500086075000868620000A5
:105A8000947400086F6E0000F87300086F6666007B
:105A90000C74000870776D0020740008A47400086E
:105AA000907500085073000898750008B009002030
:105AB000EC000020D8000020E800002068730008F7
:105AC000B4740008F8B58AB006000C006B4602AA50
:105AD00001A9300000F028F805002800C0B2012814
